:100000000C944E050C9476050C9476050C947605AC
:100010000C9476050C9476050C9476050C94760574
:100020000C9476050C9476050C9476050C94760564
:100030000C9476050C9476050C9476050C94760554
:100040000C94CC170C9476050C943C180C94161850
:100050000C9476050C9476050C9476050C94760534
:100060000C946E180C94760500000000003E5B4F67
:100070005B3E3E6B4F6B3E1C3E7C3E1C183C7E3C08
:10008000181C577D571C1C5E7F5E1C00183C180016
:10009000FFE7C3E7FF0018241800FFE7DBE7FF30A6
:1000A000483A060E2629792926407F050507407F14
:1000B00005253F5A3CE73C5A7F3E1C1C08081C1C87
:1000C0003E7F14227F22145F5F005F5F06097F017D
:1000D0007F006689956A606060606094A2FFA29468
:1000E00008047E040810207E201008082A1C080836
:1000F0001C2A08081E101010100C1E0C1E0C303884
:100100003E3830060E3E0E06000000000000005F84
:1001100000000007000700147F147F14242A7F2AA0
:100120001223130864623649562050000807030062
:10013000001C2241000041221C002A1C7F1C2A08AE
:10014000083E080800807030000808080808000011
:1001500060600020100804023E5149453E00427F85
:10016000400072494949462141494D331814127FD4
:100170001027454545393C4A494931412111090774
:100180003649494936464949291E000014000000F5
:1001900040340000000814224114141414140041C7
:1001A00022140802015909063E415D594E7C121184
:1001B000127C7F494949363E414141227F414141BC
:1001C0003E7F494949417F090909013E4141517337
:1001D0007F0808087F00417F41002040413F017FA8
:1001E000081422417F404040407F021C027F7F0470
:1001F00008107F3E4141413E7F090909063E4151B9
:10020000215E7F09192946264949493203017F01A8
:10021000033F4040403F1F2040201F3F4038403FA9
:10022000631408146303047804036159494D4300BF
:100230007F4141410204081020004141417F0402F6
:10024000010204404040404000030708002054548D
:1002500078407F284444383844444428384444286B
:100260007F385454541800087E090218A4A49C78BE
:100270007F0804047800447D40002040403D007F1A
:100280001028440000417F40007C047804787C08FA
:100290000404783844444438FC18242418182424CE
:1002A00018FC7C08040408485454542404043F44B3
:1002B000243C4040207C1C2040201C3C4030403CE2
:1002C00044281028444C9090907C4464544C440042
:1002D00008364100000077000000413608000201A6
:1002E0000204023C2623263C1EA1A161123A404092
:1002F000207A38545455592155557941225454780F
:1003000042215554784020545579400C1E527212A7
:100310003955555559395454545939555454580030
:1003200000457C410002457D420001457C407D1234
:1003300011127DF0282528F07C5455450020545496
:100340007C547C0A097F4932494949323A44444441
:100350003A324A4848303A4141217A3A424020787C
:10036000009DA0A07D3D4242423D3D4040403D3C7D
:1003700024FF2424487E4943662B2FFC2F2BFF09A2
:1003800029F620C0887E0903205454794100004496
:100390007D413048484A32384040227A007A0A0A81
:1003A000727D0D19317D2629292F282629292926F4
:1003B00030484D4020380808080808080808382F39
:1003C00010C8ACBA2F102834FA00007B00000814C3
:1003D0002A142222142A14085500550055AA55AA99
:1003E00055AAFF55FF55FF000000FF00101010FF39
:1003F00000141414FF001010FF00FF1010F010F094
:10040000141414FC001414F700FF0000FF00FF1484
:1004100014F404FC141417101F10101F101F1414D0
:10042000141F00101010F0000000001F101010101A
:100430001F10101010F010000000FF10101010100E
:1004400010101010FF10000000FF140000FF00FF4C
:1004500000001F10170000FC04F4141417101714E8
:1004600014F404F40000FF00F7141414141414140A
:10047000F700F7141414171410101F101F1414147D
:10048000F4141010F010F000001F101F0000001FE7
:1004900014000000FC140000F010F01010FF10FF1A
:1004A000141414FF141010101F00000000F010FFAF
:1004B000FFFFFFFFF0F0F0F0F0FFFFFF0000000093
:1004C00000FFFF0F0F0F0F0F3844443844FC4A4A17
:1004D0004A347E02020606027E027E0263554941CC
:1004E000633844443C04407E201E2006027E020203
:1004F00099A5E7A5991C2A492A1C4C7201724C3017
:100500004A4D4D303048784830BC625A463D3E49ED
:100510004949007E0101017E2A2A2A2A2A44445F91
:10052000444440514A444040444A51400000FF0185
:1005300003E080FF000008086B6B08361236243693
:10054000060F090F060000181800000010100030F8
:1005500040FF0101001F01011E00191D1712003C80
:100560003C3C3C00000000002200FF21000103078A
:100570000F1F3F7F0080C0E0F0F8FCFEDB40A4A628
:100580002EAF2000A1C8D300408DAED580A80000BA
:10059000600000000000000000000000000000E01B
:1005A0000000000000000000000000000001E0006A
:1005B00000000000000000000000000001F000004A
:1005C000000000000000000000000003F000000038
:1005D0000000000000000000000007F00000000024
:1005E00000000000000000000007F800000000000C
:1005F00000000000000000000FF800000003C00031
:100600007E000001E0007F0FF800000003C000FE44
:10061000000001E000FFEFF800000003C000FE0052
:100620000001E000FFFFF800000003C000F0000040
:10063000000F007FFE7FC0000003C000F00000003C
:100640000F003FFE7FF83FF1FBCFFCFEF3BC3DEF18
:10065000E01FFE7FFF7FFBFFDFFEFEFFBC3DEFE004
:100660001FC6FFFF7FFBFFDFFEFEFFBC3DEFE00F7D
:10067000E3C7FE787BC3DE1EF0FFBC3DEF0007FF43
:1006800087FC787BC3DE1EF0F83C3DEF0001FFFFE6
:10069000F0007BC3C01EF0F03C3DEF0001F37FE0B3
:1006A0003FFBC3CFFEF0F03C3DEF0003E33F807F14
:1006B000FBC3DFFEF0F03C3DEF0007E73C00787B3A
:1006C000C3DE1EF0F03C3DEF0007FFBE00787BC3A9
:1006D000DE1EF0F03C3DEF0007FFFE00787BC3DE3E
:1006E0001EF0F03C3DEF000FFFFE007FFBFFDFFE42
:1006F000F0F03FFDEFE00FFFFF007FFBFFDFFEF0BC
:10070000F03FFDEFE00FF9FF003E79F9CF9EF0F0EA
:100710001F3DE7E01FF1FF000000000000000000A7
:100720000000001F80FF007FFFFFFFFFFFFFFFFFB4
:10073000FFE01C007F007FFFFFFFFEB46D888D1877
:10074000E000001F007FFFFFFFFE95AD7DB577E065
:1007500000000F007FFFFFFFFEA5AD9D8D19E0009B
:100760000006007FFFFFFFFEB5ADEDB57EE00000A7
:100770000000000180000000000000000000038075
:1007800000000000000000000007C00000000000A2
:100790000000000007C00000000000000000000F83
:1007A000C00000000000000000001FE0000000008A
:1007B00000000000001FE00000000000000000003A
:1007C0003FE00000000000000000003FF0000000DB
:1007D0000000000000007FF0000000000000001F8B
:1007E000F87FF0000000000000003FFE7FF00000F6
:1007F00000000000003FFF7FF0000000000000004C
:100800001FFFFBE0000000000000000FFFF9FFC029
:100810000000000000000FFFF9FFF80000000000DA
:100820000007FFF1FFFF00000000000003FC73FF62
:10083000FF80000000000001FE3FFFFF800000007D
:10084000000000FF1E0FFF000000000000007FFE00
:100850001FFC000000000000003FFFFFF800000048
:10086000000000000FDFFFE0000000000000001F9C
:1008700019FFC0000000000000003F3CFF00000026
:1008800000000000007E7CF8000000000000000076
:100890007FFE7C0000000000000000FFFFFC000065
:1008A000000000000000FFFFFE000000000000004C
:1008B00000FFFFFE0000000000000001FFEFFE004F
:1008C00000000000000001FFCFFE0000000000005B
:1008D0000003FF07FE0000000000000003FC07FE0D
:1008E0000000000000000003F003FE000000000014
:1008F0000000018000FE0000000000000000000079
:100900007E000000000000000000003E000000002B
:100910000000000000000C00000000000007800044
:10092000FC000003C0000000078001FC000003C0C1
:10093000000000078001FC000003C00000000780E9
:1009400001E00000001E000000078001E000000040
:100950001E007FE3F79FF9FDE7787BDFC0FFF7FF1D
:10096000BFFDFDFF787BDFC0FFF7FFBFFDFDFF7818
:100970007BDFC0F0F787BC3DE1FF787BDE00F0F75E
:1009800087BC3DE1F0787BDE0000F787803DE1E049
:10099000787BDE007FF7879FFDE1E0787BDE00FF5C
:1009A000F787BFFDE1E0787BDE00F0F787BC3DE133
:1009B000E0787BDE00F0F787BC3DE1E0787BDE008D
:1009C000F0F787BC3DE1E0787BDE00FFF7FFBFFD7D
:1009D000E1E07FFBDFC0FFF7FFBFFDE1E07FFBDF72
:1009E000C07CF3F39F3DE1E03E7BCFC00000000000
:1009F00000000000000000FFFFFFFFFFFFFFFFFF00
:100A0000FFC0FFFFFFFFFD68DB111A31C0FFFFFFD2
:100A1000FFFD2B5AFB6AEFC0FFFFFFFFFD4B5B3B67
:100A20001A33C0FFFFFFFFFD6B5BDB6AFDC0535352
:100A3000443133303620616C6C6F636174696F6E62
:100A4000206661696C6564000000000024002700D6
:100A50002A0000000000250028002B0004040404E4
:100A60000404040402020202020203030303030358
:100A70000102040810204080010204081020010235
:100A80000408102000000008000201000003040711
:100A900000000000000000008D19A12011241FBEDD
:100AA000CFEFD8E0DEBFCDBF11E0A0E0B1E0E4EED3
:100AB000FCE402C005900D92A838B107D9F723E0F5
:100AC000A8E8B1E001C01D92A636B207E1F715E033
:100AD000CDE4D5E004C02197FE010E946124CC340E
:100AE000D107C9F70E945F1A0C9465260C94000088
:100AF000CF92DF92EF92FF920F931F93CF93DF93EA
:100B00008C01EB01C090F202D090F302E090F4026D
:100B1000F090F50220E030E040E050E4C701B6017B
:100B20000E94482320E030E040E85FE30E94472332
:100B30000E942624601771070CF45FC0C701B6013C
:100B40000E9426240F5F1F4F061717070CF455C08D
:100B5000C090F602D090F702E090F802F090F9020F
:100B600020E030E040E050E4C701B6010E94482395
:100B700020E030E040E85FE30E9447230E94262403
:100B80006C177D07D4F1C701B6010E942624239675
:100B9000C617D70794F12091FA023091FB024091D9
:100BA000FC025091FD028091F10291E0892780932F
:100BB000F1026DEC7CEC8CEC9DE30E94472360938A
:100BC000FA027093FB028093FC029093FD022DECDD
:100BD0003CEC4CEC5DE36091FE027091FF02809171
:100BE0000003909101030E9448236093FE027093DA
:100BF000FF028093000390930103DF91CF911F9137
:100C00000F91FF90EF90DF90CF900895089590E0BE
:100C1000FC01EC57F54F2491FC01E059F54F34915C
:100C2000FC01E45AF54FE491EE23C9F0222339F098
:100C3000233001F1A8F4213019F1223029F1F0E03C
:100C4000EE0FFF1FEE5AF54FA591B4918FB7F894B0
:100C5000EC91611126C030953E233C938FBF0895DF
:100C60002730A9F02830C9F0243049F7809180005E
:100C70008F7D03C0809180008F7780938000DFCFCD
:100C800084B58F7784BDDBCF84B58F7DFBCF80911A
:100C9000B0008F778093B000D2CF8091B0008F7D6D
:100CA000F9CF3E2BDACFCF93DF9390E0FC01E059F0
:100CB000F54F2491845A954FFC0184918823D1F0FB
:100CC00090E0880F991FFC01E85BF54FA591B49166
:100CD000FC01EE5AF54FC591D49161110EC09FB73A
:100CE000F8948C91E22FE0958E238C932881E22357
:100CF000E8839FBFDF91CF9108958FB7F894EC916F
:100D0000E22BEC938FBFF6CF8E50806480937C00F3
:100D100080917A00806480937A0080917A0086FDC9
:100D2000FCCF809178009091790008953FB7F894B6
:100D30008091480290914902A0914A02B0914B02E1
:100D400026B5A89B05C02F3F19F00196A11DB11D26
:100D50003FBFBA2FA92F982F8827BC01CD01620F62
:100D6000711D811D911D42E0660F771F881F991F1D
:100D70004A95D1F708958F929F92AF92BF92CF92EA
:100D8000DF92EF92FF926B017C010E9496064B016D
:100D90005C01C114D104E104F104B9F00E9496068B
:100DA000681979098A099B09683E73408105910594
:100DB00080F321E0C21AD108E108F10888EE880E1C
:100DC00083E0981EA11CB11CE4CFFF90EF90DF9050
:100DD000CF90BF90AF909F908F9008950895089501
:100DE000AF92BF92CF92DF92EF92FF920F931F9339
:100DF000CF93DF936C017B018B01040F151FEB0177
:100E00005E01AE18BF08C017D10759F06991D6012D
:100E1000ED91FC910190F081E02DC6010995892B9F
:100E200079F7C501DF91CF911F910F91FF90EF905E
:100E3000DF90CF90BF90AF900895FC01538D448D0B
:100E4000252F30E0842F90E0821B930B541710F075
:100E5000CF96089501970895FC01918D828D981782
:100E600061F0A28DAE0FBF2FB11D5D968C91928D5A
:100E70009F5F9F73928F90E008958FEF9FEF08958B
:100E8000FC01918D828D981731F0828DE80FF11D54
:100E9000858D90E008958FEF9FEF0895FC01918D6F
:100EA000228D892F90E0805C9F4F821B91098F7368
:100EB000992708958CE492E00E944E0721E0892B47
:100EC00009F420E0822F089580E090E0892B29F03A
:100ED0000E945A0781110C9400000895FC01A48D12
:100EE000A80FB92FB11DA35ABF4F2C91848D90E04C
:100EF00001968F739927848FA689B7892C93A0892F
:100F0000B1898C91837080648C93938D848D9813B8
:100F100006C00288F389E02D80818F7D808308954B
:100F2000EF92FF920F931F93CF93DF93EC0181E039
:100F3000888F9B8D8C8D98131AC0E889F9898081E0
:100F400085FF15C09FB7F894EE89FF896083E88913
:100F5000F98980818370806480839FBF81E090E005
:100F6000DF91CF911F910F91FF90EF900895F62E92
:100F70000B8D10E00F5F1F4F0F731127E02E8C8D2C
:100F80008E110CC00FB607FCFACFE889F989808171
:100F900085FFF5CFCE010E946E07F1CFEB8DEC0FF0
:100FA000FD2FF11DE35AFF4FF0829FB7F8940B8F8E
:100FB000EA89FB8980818062CFCFCF93DF93EC01F8
:100FC000888D8823B9F0AA89BB89E889F9898C9131
:100FD00085FD03C0808186FD0DC00FB607FCF7CFED
:100FE0008C9185FFF2CF808185FFEDCFCE010E94ED
:100FF0006E07E9CFDF91CF910895EF92FF920F93A3
:101000001F93CF93DF93EC01EC80FD806E157F057D
:101010000CF070C057FF04C0240F351F50E040E0B3
:101020008E819F81FA01E20FF31F8E179F071CF438
:101030009C01241B350B121613060CF05BC0922F7B
:10104000842F8695869586958E9DD0018F9DB00DB7
:1010500011246A0F7B1FAF8DB8A1A60FB71F477071
:1010600049F188E0841B482F682F70E0FB01EC58A1
:10107000FA4FE491281708F063C0621B71092FEF43
:1010800030E002C0359527956A95E2F7E2230130FA
:10109000110539F0B0F10230110561F58C91E827A6
:1010A00002C08C91E82BEC93941720F12C813D81A8
:1010B000A20FB31FE92FE41BE83078F002301105CE
:1010C00021F58E2F9C9190959C932C813D81A20FB0
:1010D000B31F88508830B0F7E770EE2359F0F0E086
:1010E000E459FA4FE49101301105F9F010F10230A2
:1010F000110519F1DF91CF911F910F91FF90EF90A2
:101100000895E0958C91E823CECF81E0011511057B
:1011100009F480E081959E2F8C932C813D81A20F54
:10112000B31F98509830C0F7D7CF8C91E82BEC9331
:10113000E1CFE0958C91E823FACF8C91E827F7CFA7
:101140000130110509F4ADCFE0F20230110509F4C8
:10115000A5CFAE0DBF1DAECF0F931F93CF93DF93DF
:1011600077FF04C0260F371F70E060E0DC011496A3
:10117000CD91DC91FB01E20FF31FCE17DF071CF4CA
:101180009E01261B370B121613064CF5FA0157FD6C
:101190003796A3E0F595E795AA95E1F7EC9FD00186
:1011A000ED9FB00DFC9FB00D11246A0F7B1FDC0179
:1011B0005F96ED91FC91E60FF71F4770552781E090
:1011C00090E001C0880F4A95EAF7482F01301105D9
:1011D00059F0A8F02E0F3F1F02301105E1F0DF910A
:1011E000CF911F910F9108952E0F3F1FE217F30724
:1011F000B1F38191DF011197842B8C93F7CF809508
:101200002E0F3F1FE217F30751F39191DF01119762
:1012100098239C93F7CFE217F30709F38191DF013D
:10122000119784278C93F7CF0F931F93FA01DC015A
:1012300056964C9156974230E9F04330A1F1413037
:1012400061F514964D915C91DA01AE1BBF0BFD0167
:10125000E21BF30B77FD0BC0DC0116964D915C9100
:101260006417750724F4AB01BF010E94AC081F91FD
:101270000F91089514964D915C91DA01A61BB70B5E
:10128000BD0161507109DC0116964D915C91DA0146
:10129000AE1BBF0BFD01E21BF30B77FDE8CFAF01E7
:1012A0000E94FD07E4CF16964D915C91DA01A61BD2
:1012B000B70BBD0161507109CDCF0F931F93FA0198
:1012C000DC0156964C9156974230A9F0433091F18B
:1012D000413019F514964D915C91DA01AE1BBF0BAC
:1012E000FD013197F7FD04C0AB01BF010E94FD076E
:1012F0001F910F91089514964D915C91DA01A61BF0
:10130000B70BBD01DC0116964D915C91DA01AE1B65
:10131000BF0BFD013197621B730BF7FDE9CFDC01B9
:1013200016964D915C91E417F50714F7AF010E94F2
:10133000AC08DECF16964D915C91DA01A61BB70B77
:10134000BD01621B730BCECFFC0177FD64C08085AD
:101350009185681779070CF05EC057FD5CC08285E7
:101360009385481759070CF056C086898230B1F032
:10137000833029F1813041F484819581841B950B60
:10138000AB01BC01615071092130310509F108F44C
:1013900043C02230310509F463C0089584819581EA
:1013A000DC01A61BB70BBD016150710986819781D5
:1013B000DC01A41BB50BAD0141505109E5CF86817D
:1013C0009781861B970BBA01AC0141505109DCCFC4
:1013D000CA0157FD0796A3E095958795AA95E1F771
:1013E000A481B5818A9F90018B9F300D9A9F300D0B
:1013F0001124620F731F078CF0A1E02DE60FF71F79
:101400004770552721E030E001C0220F4A95EAF7E6
:101410008081822B80830895CA0157FD079633E0AF
:10142000959587953A95E1F7A481B5818A9F9001BA
:101430008B9F300D9A9F300D1124620F731F078C04
:10144000F0A1E02DE60FF71F4770552781E090E0EF
:1014500001C0880F4A95EAF7809590818923DACFF9
:10146000CA0157FD079623E0959587952A95E1F7E0
:10147000A481B5818A9F90018B9F300D9A9F300D7A
:101480001124620F731F078CF0A1E02DE60FF71FE8
:101490004770552721E030E001C0220F4A95EAF756
:1014A00080818227B7CF08958EBD00000DB407FE5E
:1014B000FDCF8EB508958CBD9DBD08950895FC01A6
:1014C0006370668B8481958126813781613039F024
:1014D000633029F091878087338722870895318789
:1014E00020879387828708952F923F924F925F9231
:1014F0006F927F928F929F92AF92BF92CF92DF9224
:10150000EF92FF920F931F93CF93DF93CDB7DEB788
:101510006A970FB6F894DEBF0FBECDBF9A8F898F42
:101520007A8369834A01D22E18870F833701BC2C36
:10153000DC0159962D913C915A972115310509F0FE
:1015400015C118968D919C911997681779070CF021
:10155000D7C11A968D919C91481759070CF0D0C1AC
:101560004C2C512CB6E0CB9E600D711D11247C8754
:101570006B87161617060CF0C3C1EA2DF0E0FA8748
:10158000E98793E0EE0FFF1F9A95E1F7F88BEF875D
:10159000CF01840F951F181619060CF0B1C1A98D43
:1015A000BA8D58968C91811104C0BFEABD1508F41C
:1015B000D394A98DBA8DED91FC9111970284F38596
:1015C000E02DCD010995B5E0DB9EC0011124E98134
:1015D000FA81FC83EB83312C212C9C0128593F4F4D
:1015E000388F2F8B4A2D50E05E8B4D8BEF89F88D15
:1015F000E20DF31D44919E828D82D12CC12C698114
:101600007A81620D731D7A8B698B842F90E09C8B9D
:101610008B8BE98DFA8DA081B18140FF82C0F1E012
:10162000BF126FC0AF126DC01C96ED91FC912F815F
:101630003885A4014C0D5D1D69897A89898D9A8D43
:101640000995EB89FC89F595E7954E2F5FEFC51A53
:10165000D50A6D817E818D899E89680F791F7E8371
:101660006D8398E0C916D10481F6AFEF2A1A3A0AC1
:10167000EB81FC81E40DF51DFC83EB83F5E02F1677
:10168000310409F0B3CF2F81388526153705B9F01D
:10169000A98DBA8DED91FC91B1E0BB1257C0AB1290
:1016A00055C069817A816B5F7F4F0088F189E02D99
:1016B000830128E030E0A401898D9A8D0995A98DD8
:1016C000BA8DED91FC9111970688F789E02DCD0137
:1016D0006A960FB6F894DEBF0FBECDBFDF91CF91F3
:1016E0001F910F91FF90EF90DF90CF90BF90AF9040
:1016F0009F908F907F906F905F904F903F902F9032
:1017000009941E96ED91FC91EF80F88409851A8565
:1017100092014D815E816B817C81898D9A8D0995C5
:1017200090CF2F8138852615370509F48ACF31E00F
:10173000B31207C0A31205C01C96ED91FC91930152
:1017400078CF1E96ED91FC917301E0CF6B857C857F
:10175000641975090684F785E02D73010F851889D2
:101760009201A401898D9A8D0995A9CFF90134962A
:101770009491329745915491D91AB7E0DB9E400D70
:10178000511D1124F901259134913C8B2B8BFA01C9
:1017900025903490FA013296749031963491398BB9
:1017A000329664903196449041E04C1518F04A15F9
:1017B00008F07FC0662D062C000C770B7C836B83B2
:1017C000842D042C000C990B9E838D83A98DBA8DDA
:1017D000ED91FC9111970284F385E02DCD010995DF
:1017E000512CD12CC12CEA2DF0E0FA87E9872B2D62
:1017F00030E03C872B87A401440D511D47FC5A95CE
:10180000588F4F8B69817A81660D711D67FC7A95BF
:101810007E876D877989C71608F051CF2C2D30E06F
:101820004D815E81420F531FA985BA854A9FC00131
:101830004B9F900D5A9F900D1124FC01E80DF91D4E
:10184000F88BEF87852D612C4F89588D420F531FE0
:101850005E8B4D8B671408F050C044244394480EAF
:10186000877041F4C1010196EB89FC89E20DF31DFB
:10187000D4901C01D7FE19C0A98DBA8DED91FC91B1
:10188000662D70E0B1E0BB1219C0AB1217C02D85F8
:101890003E85620F731F0484F585E02D2F81388506
:1018A0004D895E89898D9A8D0995DD0C6394842D0F
:1018B000D1CF1E821D821C821B8288CF4B815C810E
:1018C000640F751FAB85BC856A9FC0016B9F900D2F
:1018D0007A9F900D112469817A81680F791F06849F
:1018E000F785E02DEF80F88409851A859D014F85E5
:1018F0005889898D9A8D0995D8CF570CC3948ACF72
:101900006A960FB6F894DEBF0FBECDBFDF91CF91C0
:101910001F910F91FF90EF90DF90CF90BF90AF900D
:101920009F908F907F906F905F904F903F902F90FF
:1019300008958F929F92AF92CF92EF92FF920F9362
:101940001F93CF93DF93EC01262F898D9A8D0097FB
:1019500009F051C06A30D1F41D861C868D8948E09B
:10196000849F900111248E859F85820F931F9F87EE
:101970008E8781E090E0DF91CF911F910F91FF90D2
:10198000EF90CF90AF909F908F9008956D3089F336
:10199000CC88AD888F898823C1F08C859D8536E001
:1019A000C39E800D911D11244885598548175907FC
:1019B00064F44E855F851D861C8638E0A39EC001B9
:1019C0001124840F951F9F878E87EA88FB880889DA
:1019D00019894E855F856C857D85CE010E94740ACC
:1019E0002C898C859D8546E0249F800D911D1124B6
:1019F0009D878C87BECF6A3069F41D861C86FC01EA
:101A00003896E4912D898E859F85E29F800D911DEA
:101A10001124ADCF6D3009F4ACCFFC013496349174
:101A2000631708F4A6CF3296E491E61708F4A1CF25
:101A3000FC01329685909490462F431B342F47E04B
:101A4000349F800C911C1124F4013296349131960C
:101A5000E4913323A9F1EE2399F1CC88F401359672
:101A6000E491AD884F89442301F10E2E000CFF0B49
:101A7000E30FF11DCE9EA001CF9E500D11246C8569
:101A80007D85460F571F68857985641775076CF447
:101A90004E855F851D861C86FC013896E491AE9EBE
:101AA000400D511D11245F874E87EA88FB88088905
:101AB00019894E855F856C857D85CE010E94740AEB
:101AC000F4013496E4912C898C859D85E29F800DEC
:101AD000911D11248DCF6F927F928F929F92AF9222
:101AE000BF92CF92DF92EF92FF920F931F93CF930B
:101AF000DF93EC016B015A0139014801E881F9815A
:101B00000284F385E02D0995E881F9810288F38943
:101B1000E02D87019301A501B601CE010995A5012C
:101B2000480D591D41505109E881F9810288F38916
:101B3000E02D9301B601CE010995E881F981008875
:101B4000F189E02D9401A501B601CE010995C60CDD
:101B5000D71CB60161507109E881F9810088F189CB
:101B6000E02D9401A501CE010995E881F98106884F
:101B7000F789E02DCE01DF91CF911F910F91FF905A
:101B8000EF90DF90CF90BF90AF909F908F907F901D
:101B90006F9009946F927F928F929F92AF92BF92B3
:101BA000CF92DF92EF92FF920F931F93CF93DF9329
:101BB0005C01EB016A01490138018701DC01ED910B
:101BC000FC916217730719F5641675062CF0962DB3
:101BD000872D3A01C92ED82E9601261937092F5F75
:101BE0003F4F048CF58DE02DA301BE01C501099581
:101BF000DF91CF911F910F91FF90EF90DF90CF90E9
:101C0000BF90AF909F908F907F906F9008954615F2
:101C1000570591F42617370724F0892D4B01C22F61
:101C2000D82F9E01281939092F5F3F4F068CF78D59
:101C3000E02DA601B401DACF0284F385E02D0995E9
:101C4000D501ED91FC910488F589E02D8301940183
:101C5000A601BE01C5010995D501ED91FC9106884B
:101C6000F789E02DC501DF91CF911F910F91FF9072
:101C7000EF90DF90CF90BF90AF909F908F907F902C
:101C80006F900994EF92FF920F931F93DC011A96C5
:101C90000D911C911B9718962D913C911997ED91E0
:101CA000FC9100A0F1A1E02D7B0150E040E070E04C
:101CB00060E009951F910F91FF90EF9008954F926A
:101CC0005F926F927F928F929F92AF92BF92CF92CC
:101CD000DF92EF92FF920F931F93CF93DF936C01EC
:101CE0002B015A0139014801DC01ED91FC9102847C
:101CF000F385E02D0995E201640C751CD601ED9188
:101D0000FC91C615D7055CF40088F189E02D8701A8
:101D10009401A501BE01C60109952196EFCF068861
:101D2000F789E02DC601DF91CF911F910F91FF90B0
:101D3000EF90DF90CF90BF90AF909F908F907F906B
:101D40006F905F904F9009948F929F92AF92BF9245
:101D5000CF92DF92EF92FF920F931F93CF93DF9377
:101D6000EC015B014A016901E881F9810284F38594
:101D7000E02D099595012C0D3D1D21503109E8817B
:101D8000F9810488F589E02D78018401A401B50169
:101D9000CE010995E881F9810688F789E02DCE0109
:101DA000DF91CF911F910F91FF90EF90DF90CF9037
:101DB000BF90AF909F908F9009948F929F92AF9217
:101DC000BF92CF92DF92EF92FF920F931F93CF9328
:101DD000DF93EC015B014A0169017801E881F98137
:101DE0000284F385E02D0995C80CD91C86010150A9
:101DF0001109E881F9810488F589E02D9501A40194
:101E0000B501CE010995E881F9810688F789E02DB1
:101E1000CE01DF91CF911F910F91FF90EF90DF9056
:101E2000CF90BF90AF909F908F900994EF92FF92C8
:101E30000F931F93DC01ED91FC9100A0F1A1E02D27
:101E400009951F910F91FF90EF9008950F931F93A5
:101E5000DC01ED91FC91068CF78DE02D09951F9129
:101E60000F9108950F931F93DC01ED91FC91048C69
:101E7000F58DE02D09951F910F910895DC01ED91ED
:101E8000FC910084F185E02D09943F924F925F927E
:101E90006F927F928F929F92AF92BF92CF92DF927A
:101EA000EF92FF920F931F93CF93DF935C017B011F
:101EB0004A016901390187E0680E711C93E075944D
:101EC00067949A95E1F72B01400E511E10E000E057
:101ED000312CD0E0C0E0CE0187709927330C892BDC
:101EE00059F4FE0183E0F595E7958A95E1F7E00F57
:101EF000F11FE80DF91D349037FE0AC021E030E0F3
:101F0000A701B5016C0F7D1F82E293E00E943E0F96
:101F10002196CC16DD06F9F68FEFE81AF80A060DC1
:101F2000171DE414F504A9F6DF91CF911F910F91CD
:101F3000FF90EF90DF90CF90BF90AF909F908F90E9
:101F40007F906F905F904F903F9008952F923F92B7
:101F50004F925F926F927F928F929F92AF92BF92B9
:101F6000CF92DF92EF92FF920F931F93CF93DF9365
:101F700000D000D000D0CDB7DEB73C016A013E836F
:101F80002D83FC82EB825801A41AB50AB7FE03C068
:101F9000B194A194B1088D809E80861A970A97FE0D
:101FA00003C09194819491088A149B045CF0902F53
:101FB000812F0D811E819D838E839C2D8D2D6B0124
:101FC000692F782F0C151D055CF09D818E817E8315
:101FD0006D83692F782F902F812F8601C92ED82EDF
:101FE0001601201A310A2B012D813E81421A530A13
:101FF00057FE03C0519441945108710137FE03C04C
:102000003FEFE31AF30AF594E7948D819E818617DA
:1020100097075CF5A1E0B0E0BA83A983C016D106AA
:102020004CF1D301ED91FC910484F585E02D2B81D9
:102030003C81A8016D817E818A149B041CF04D8136
:102040005E81B801C3010995E418F508F7FE0AC0DE
:102050002D813E8189819A81280F391F3E832D83EE
:10206000E20CF31C0F5F1F4FD9CF2FEF3FEF3A83E6
:102070002983D4CF26960FB6F894DEBF0FBECDBF0E
:10208000DF91CF911F910F91FF90EF90DF90CF9054
:10209000BF90AF909F908F907F906F905F904F9088
:1020A0003F902F90089508952091EE01260F332739
:1020B000331F21323105ECF420911202FC0190E033
:1020C00080E0243069F082E00895A091EE01219132
:1020D000AC0142535E4FA40FB52FB11D2C93019656
:1020E000861798F38091EE01680F6093EE0180E00F
:1020F000089581E008951092120281E08093140205
:102100001092130261E082E10E94070661E083E120
:102110000E940706E9EBF0E080818E7F808380815A
:102120008D7F808388E48093B80085E48093BC0031
:102130000895CF93DF9391E09093CD018823B9F078
:10214000C091B800D091BA008091BC008A7B809386
:10215000BC0060E082E10E94070660E083E10E942B
:1021600007060E947B10D093BA00C093B800DF919D
:10217000CF910895E091420280914102E81730F436
:10218000F0E0E855FE4F808190E008958FEF9FEFDB
:10219000089590914202809141022FEF3FEF9817EE
:1021A00048F4E92FF0E0E855FE4F208130E09F5FD2
:1021B00090934202C9010895809141029091420298
:1021C000891B990B0895CF92DF92EF92FF920F93A4
:1021D0001F93CF93DF937C01CB018A0120913902B9
:1021E000222389F0EB016B01C40ED51ECC15DD0551
:1021F00069F06991D701ED91FC910190F081E02D9A
:10220000C7010995F3CF642F0E945410C801DF91D4
:10221000CF911F910F91FF90EF90DF90CF90089595
:10222000CF93DF931F92CDB7DEB769832091390238
:102230002223F9F020913F02203258F021E030E0D3
:10224000FC013383228390E080E00F90DF91CF91F7
:10225000089580914002E82FF0E0E857FE4F998101
:1022600090838F5F8093400280933F0281E090E0F3
:10227000ECCF61E0CE0101960E945410F7CFCF92CF
:10228000DF92EF92FF920F931F93CF93DF93D09142
:102290003F0281E0D13208F09CC0C09138020E9418
:1022A00096066B017C018091120281116CC082E064
:1022B0008093120281E0809314028FEF80931102C9
:1022C00010923602D0933502A8E8B1E0E5E1F2E0E1
:1022D00080E0D8138DC01092370280913702CC0F66
:1022E000C82BC093370280911302813009F084C05B
:1022F000109213020E9496066B017C0180913702B6
:102300008093BB008091C9019091CA01A091CB013B
:10231000B091CC01892B8A2B8B2BA1F00E949606C1
:102320000091C9011091CA012091CB013091CC01DB
:102330006C197D098E099F090617170728073907A9
:1023400008F442C08091BC0083FDD8CF85EC809317
:10235000BC000E9496066B017C01809112028230C3
:1023600009F44CC0809111028F3F09F469C080913B
:102370001102803209F466C080911102803309F4A1
:1023800063C084E026C08091C9019091CA01A091E8
:10239000CB01B091CC01892B8A2B8B2B09F483CFF5
:1023A0000E9496060091C9011091CA012091CB01AB
:1023B0003091CC016C197D098E099F09061717070A
:1023C0002807390708F06FCF8091C8010E94991043
:1023D00085E01092400210923F0210923902DF9184
:1023E000CF911F910F91FF90EF90DF90CF900895C4
:1023F0009D9191938F5F6DCF85EEA9CF8091C9019B
:102400009091CA01A091CB01B091CC01892B8A2B6C
:102410008B2B09F4A2CF0E9496060091C90110915E
:10242000CA012091CB013091CC016C197D098E0934
:102430009F09061717072807390708F08ECFC4CF62
:1024400080E0C7CF82E0C5CF83E0C3CFCF92DF92D9
:10245000EF92FF920F931F93CF93DF93EC016B01E9
:10246000142F8D8D9E8D009709F454C029A131E061
:1024700030933902209338021092400210923F02AA
:10248000DC01ED91FC910190F081E02D60E0099577
:102490007601CC24C394D12C01E011508D8D9E8DFA
:1024A0001F3F71F1B0E2CB16D104C0F00E943F1182
:1024B0008D8D9E8D29A100933902209338021092B0
:1024C000400210923F02DC01ED91FC910190F081FD
:1024D000E02D60E00995CC24C394D12C8D8D9E8D88
:1024E000F7016491DC01ED91FC910190F081E02D08
:1024F0000995BFEFCB1ADB0AEFEFEE1AFE0ACDCF3C
:10250000DF91CF911F910F91FF90EF90DF90CF90CF
:102510000C943F11EDA5FEA590818BA98095892390
:1025200080837B01115070F1F70184912B8D3C8DDC
:10253000232B31F00E94540AFFEFEF1AFF0AF2CF6B
:1025400028E030E040E8E9A5FAA599A9582F5423DE
:10255000A9F05081952B9083EBA5FCA590815AA9F9
:10256000952B9083EBA5FCA550819AA99095952376
:10257000908346952150310931F7DECF50819095F7
:102580009523E9CFDF91CF911F910F91FF90EF90AD
:10259000DF90CF9008951F93CF93DF93EC018D8D43
:1025A0009E8D009721F1162F29A131E03093390239
:1025B000209338021092400210923F02DC01ED910C
:1025C000FC910190F081E02D60E009958D8D9E8D4C
:1025D000DC01ED91FC910190F081E02D612F0995D6
:1025E0008D8D9E8DDF91CF911F910C943F11ADA5E4
:1025F000BEA59C918BA9809589238C938B8D9C8DF6
:10260000892B31F0862FDF91CF911F910C94540AC2
:1026100028E030E080E8A9A5BAA599A9462F48236B
:10262000C1F04C91942B9C93ABA5BCA59C914AA95D
:10263000942B9C93ABA5BCA54C919AA990959423FF
:102640009C9386952150310931F7DF91CF911F91ED
:1026500008954C9190959423E6CF1F93CF93DF93E9
:10266000EC01162F8D8D9E8D892BB1F12DA93EA9E0
:102670004FA958AD60E074E284EF90E00E94162309
:1026800020513109410951095695479537952795AC
:102690002093B80066EA111167EACE010E94CB12BE
:1026A0008D8D9E8D892B41F129AD3AAD4BAD5CAD41
:1026B00060E074E284EF90E00E941623205131091B
:1026C0004109510956954795379527952093B800AC
:1026D000DF91CF911F9108958B8D9C8D892B21F0D7
:1026E0008EAD9FAD0E945B0AEFA5F8A990818CA9E1
:1026F000809589238083CECFEFA5F8A980819CA9FE
:10270000892B8083E5CFBF92CF92DF92EF92FF9229
:102710000F931F93CF93DF93EC018D8D9E8D892BAB
:1027200009F48FC02DA93EA94FA958AD60E074E20D
:1027300084EF90E00E94162320513109410951098C
:1027400056954795379527952093B80044E068E65D
:1027500075E0CE010E9426128C819D818034910506
:1027600009F07FC060E2CE010E94CB126C81615EF5
:10277000CE010E94CB122E813F81C901079697FDA1
:10278000079633E0959587953A95E1F72C813D8141
:10279000829F7001839FF00C929FF00C11240F8D8B
:1027A00018A18D8D9E8DE00EF11E009709F485C055
:1027B00029A131E03093390220933802109240026F
:1027C00010923F02DC01ED91FC910190F081E02D2F
:1027D00060E40995CC24C394D12CBB24B3948D8D93
:1027E0009E8DE016F10609F443C0B0E2CB16D10489
:1027F000C0F00E943F118D8D9E8D29A1B0923902AB
:10280000209338021092400210923F02DC01ED91B9
:10281000FC910190F081E02D60E40995CC24C394F3
:10282000D12C8D8D9E8DF80161918F01DC01ED9190
:10283000FC910190F081E02D0995BFEFCB1ADB0AE6
:10284000CECF8B8D9C8D892B21F08EAD9FAD0E94BC
:102850005B0AEFA5F8A990818CA9809589238083D4
:1028600075CF60E0CE010E94CB126C81615080CFA9
:102870000E943F118D8D9E8D892B09F453C029AD87
:102880003AAD4BAD5CAD60E074E284EF90E00E9445
:10289000162320513109410951095695479537951D
:1028A00027952093B800DF91CF911F910F91FF9052
:1028B000EF90DF90CF90BF900895EDA5FEA58081A9
:1028C0009BA9892B8083E016F106A1F2F801819182
:1028D0008F012B8D3C8D232B19F00E94540AF3CFCE
:1028E00028E030E040E8E9A5FAA599A9582F54233B
:1028F000A9F05081952B9083EBA5FCA590815AA956
:10290000952B9083EBA5FCA550819AA990959523D2
:10291000908346952150310931F7D5CF508190955C
:102920009523E9CFEFA5F8A980819CA9892B808305
:10293000BACF90E080E00895EF92FF920F931F933B
:10294000FC01828168E770E0811102C068E070E0FC
:10295000748363838081918145815681DC01ED918F
:10296000FC9100A0F1A1E02DEE24E394F12C04E011
:1029700010E022E030E009951F910F91FF90EF9059
:1029800008952F923F924F925F926F927F928F9213
:102990009F92AF92BF92CF92DF92EF92FF920F93EE
:1029A0001F93CF93DF93CDB7DEB72B970FB6F89475
:1029B000DEBF0FBECDBFFC01A081B181FB01048051
:1029C000F581E02DFC83EB83FB01608171814B81FC
:1029D0005C81452B09F422C169837A8318968D9115
:1029E0009C9119979F838E831B861A8610E000E0C6
:1029F00066246A94762C22242A94322CEE24EA94BB
:102A0000FFE7FF2ECC24CA948FE7D82EE981FA8104
:102A10008191FA83E983882309F4EDC059964D9199
:102A20005C915A974115510509F497C08A3069F4B1
:102A3000FA013896E49155968C915597E89F000DD0
:102A4000111D11241B861A86E1CF8D30F9F2FA018F
:102A5000349694913296E4918917C0F2E817B0F257
:102A6000FA01329625913491891BF7E08F9F200D52
:102A7000311D1124F901329684918D833196949100
:102A80009887319684918987319684912A5F3F4F48
:102A9000F901249154965C905497E52DF0E05596F9
:102AA0004C90559757969C915797992301F13D81EA
:102AB000832E912C880E911C87FD9A948E9E500136
:102AC0008F9EB00C9E9EB00C1124EA85FB85AE0E45
:102AD000BF1EEE81FF81EA15FB054CF4FA01389622
:102AE000E491E49D000D111D11241B861A86352DDD
:102AF000482F4303C00111244A855B85840F951F2D
:102B0000542D250390011124200F311F8C159D0594
:102B10000CF46C012E153F050CF479014D81459D97
:102B2000800D911D11240197281639060CF41C0103
:102B30005885549D200D311D1124215031096216F4
:102B400073060CF439018A859B852985529E800D78
:102B5000911D11249B878A8759CF8A3051F455964D
:102B60008C91559738E0839FC0011124080F191FDD
:102B700069CF8D3009F44ACF54962C91549746E092
:102B8000249F9001112455968C91559758E0859F6C
:102B9000C001112457964C915797442369F04A85F8
:102BA0005B85420F531FEE81FF81E417F50724F484
:102BB000080F191F1B861A864A855B85240F351F4F
:102BC000A90141505109241635060CF41A01800F51
:102BD000911F0197681679060CF43C018A859B8544
:102BE0008C159D050CF46C010E151F050CF4780175
:102BF0003B872A870BCF2C143D040CF449C02C18BA
:102C00003D089FEF291A390A30E020E06E147F0456
:102C10002CF093012E193F092F5F3F4F1A968D918B
:102C20009C911B97821B930B9695879518962D91D7
:102C30003C91199722193309369527951D963C9397
:102C40002E931C971F969C938E931E97ED91FC914B
:102C500011970280F381E02D4B815C81CD012B9691
:102C60000FB6F894DEBF0FBECDBFDF91CF911F919D
:102C70000F91FF90EF90DF90CF90BF90AF909F901B
:102C80008F907F906F905F904F903F902F9009941E
:102C9000312C212CB9CFFB0101900020E9F73197AD
:102CA000AF01461B570BDC01ED91FC910280F381D3
:102CB000E02D09944F925F926F927F928F929F9234
:102CC000AF92BF92CF92DF92EF92FF920E94FC20D0
:102CD0002B013C010E94FC2022E0C22ED12CE12CD1
:102CE000F12CA70196010E94AD224B015C0180E00E
:102CF00090E0A0E8BFE38093FA029093FB02A093D8
:102D0000FC02B093FD028DEC9CECACECBEE3809336
:102D1000FE029093FF02A0930003B0930103C3014E
:102D2000B201A70196010E94AD22672B682B692B87
:102D300061F080E090E0A0E8BFEB8093FA0290930E
:102D4000FB02A093FC02B093FD0289288A288B28FD
:102D500061F08DEC9CECACECBEEB8093FE029093AA
:102D6000FF02A0930003B0930103FF90EF90DF9068
:102D7000CF90BF90AF909F908F907F906F905F901B
:102D80004F9008950E9449260F931F93CF93DF938E
:102D9000EC0188819981009759F02A813B8126179F
:102DA000370730F081E0DF91CF911F910F910895A7
:102DB0008B016F5F7F4F0E948C25009759F099839C
:102DC00088831B830A832C813D81232B59F7FC01C7
:102DD0001082E8CF80E0E7CFCF93DF93EC018881CA
:102DE0009981009711F00E940325198218821D8293
:102DF0001C821B821A82DF91CF910895EF92FF927D
:102E00000F931F93CF93DF93EC017B018A01BA01EB
:102E10000E94C41681110BC0CE010E94EC16CE0197
:102E2000DF91CF911F910F91FF90EF9008951D8337
:102E30000C83B701888199810E945E26F0CFEF92C2
:102E4000FF920F931F93CF93DF93CDB7DEB76297B7
:102E50000FB6F894DEBF0FBECDBF8C01CB01F801D9
:102E60001182108213821282158214824AE09E011E
:102E70002F5F3F4F7901B9010E945421F701019062
:102E80000020E9F73197AF014E195F09B701C8017A
:102E90000E94FE1662960FB6F894DEBF0FBECDBF3D
:102EA000DF91CF911F910F91FF90EF900895CF93F5
:102EB000DF93EC01FB018617970749F06081718170
:102EC0006115710541F0448155810E94FE16CE01C5
:102ED000DF91CF9108950E94EC16F9CFFC0180811B
:102EE0009181009711F00C9403250895FC018681CF
:102EF00097819C01295F3F4F37FF02C0295F3F4FF9
:102F000083E0359527958A95E1F784819581289FFF
:102F1000A001299F500D389F500D112470E060E0F2
:102F2000878D90A10C94572685ED8093BC008091ED
:102F3000C9019091CA01A091CB01B091CC01079633
:102F4000A11DB11D23E0B695A795979587952A9564
:102F5000D1F72091BC0024FD03C010921202089505
:102F60004091C9015091CA016091CB017091CC018F
:102F7000452B462B472B69F30097A105B10541F07E
:102F80002AE22A95F1F700C00197A109B109E1CF22
:102F90008091C8010C9499101F920F920FB60F9256
:102FA00011242F933F938F939F93AF93BF9380915F
:102FB000440290914502A0914602B091470230919F
:102FC000430223E0230F2D3758F50196A11DB11DB3
:102FD000209343028093440290934502A0934602BB
:102FE000B09347028091480290914902A0914A0211
:102FF000B0914B020196A11DB11D809348029093A0
:103000004902A0934A02B0934B02BF91AF919F91A6
:103010008F913F912F910F900FBE0F901F90189599
:1030200026E8230F0296A11DB11DD2CF1F920F9249
:103030000FB60F9211242F933F934F935F936F938B
:103040007F938F939F93AF93BF93EF93FF938CE402
:1030500092E00E946E07FF91EF91BF91AF919F9117
:103060008F917F916F915F914F913F912F910F9031
:103070000FBE0F901F9018951F920F920FB60F92D0
:1030800011242F938F939F93EF93FF93E0915C0212
:10309000F0915D028081E0916202F091630282FD15
:1030A0001BC09081809165028F5F8F7320916602B3
:1030B000821741F0E0916502F0E0E45BFD4F958FEF
:1030C00080936502FF91EF919F918F912F910F90C7
:1030D0000FBE0F901F9018958081F4CF1F920F9212
:1030E0000FB60F9211242F933F934F935F936F93DB
:1030F0007F938F939F93AF93BF93EF93FF938091B1
:10310000B900887F803609F44AC0F0F5883209F4A6
:10311000A7C018F5803109F49BC0B8F4882309F4DE
:10312000F9C0883009F494C0FF91EF91BF91AF913D
:103130009F918F917F916F915F914F913F912F91CF
:103140000F900FBE0F901F901895883109F488C01A
:10315000803251F78093110214C0803409F49DC06D
:1031600040F48033B9F38833F9F68093110285EC8B
:10317000B0C0803509F485C0883509F496C088341C
:1031800099F60E949417D0CF883909F48CC038F58D
:10319000883729F050F4883611F0803729F683E01B
:1031A000809312021092100257C0883809F47BC035
:1031B000803919F0803809F0B7CF80911002803241
:1031C00008F071C0E091100281E08E0F8093100230
:1031D0008091BB00F0E0E051FE4F80833DC0803B1A
:1031E00039F0E0F4803A09F479C0883A09F09CCFCC
:1031F00084E0809312021092EF011092EE01E091B0
:103200003D02F0913E0209958091EE0181110FC0BF
:1032100081E08093EE011092CE0109C0803C09F458
:10322000A6CF883C09F4A3CF883B09F07DCFE0917D
:10323000EF0181E08E0F8093EF01F0E0E253FE4F4B
:1032400080818093BB009091EF018091EE0129C0B5
:10325000809137028093BB0085EC8093BC0064CFE3
:103260009091360280913502981758F5E091360218
:1032700081E08E0F80933602F0E0EB5EFD4F80819F
:10328000E9CFE091360281E08E0F80933602809183
:10329000BB00F0E0EB5EFD4F8083909136028091A1
:1032A00035029817C8F285E8D8CFE091360281E060
:1032B0008E0F809336028091BB00F0E0EB5EFD4FF5
:1032C00080838091140281115CCF81E0809313028E
:1032D00084EA8093BC001092120226CF85EC809382
:1032E000BC001092120280911002803230F4E09102
:1032F0001002F0E0E051FE4F10826091100270E089
:10330000E0913B02F0913C0280EF91E00995109230
:1033100010020ACF1092110234CFCF93DF93ECE466
:10332000F2E01382128248EE53E060E070E04483E2
:103330005583668377838EE091E09183808385EC6B
:1033400090E09587848784EC90E09787868780EC6F
:1033500090E0918B808B81EC90E0938B828B82EC60
:1033600090E0958B848B86EC90E0978B868B118E0A
:10337000128E138E148EA6E1B3E013961C921E9249
:10338000129714964D935D936D937C93179780E2FB
:1033900091E011969C938E93E2E2F3E01382128205
:1033A00020E830E03583248380E290E097838683B1
:1033B0003187208793878287168A15861486178619
:1033C000168621E0258B248B8FEF9FEF938B828BCA
:1033D000918B808B278B108E128E118E82E391E061
:1033E00091838083148E138EB68FA58F10A2178EB3
:1033F0008FEF84A385A386A387A380A780E89AE1A3
:10340000A6E0B0E085AB96ABA7ABB0AF80EA96E89C
:10341000A1E0B0E081AF92AFA3AFB4AF80E586AFDB
:1034200017AE8DE093E0DC011196FC93EE931896B5
:103430001C921E92179712961C9212974EE050E023
:1034400016965C934E931597C4E0D3E0F983E88316
:1034500018861F822A835E834D83F0930303E093D3
:103460000203A9EEB2E01196FC93EE9313969C939F
:103470008E9312971596DC93CE93149782E093E087
:1034800017969C938E93169718961C92189740E067
:1034900050E060E872E419964D935D936D937C93D0
:1034A0001C9740E050E060E871E41D964D935D93F9
:1034B0006D937C935097DF91CF910C945A16CF93D4
:1034C000DF93CDB7DEB768970FB6F894DEBF0FBEB7
:1034D000CDBF789484B5826084BD84B5816084BD9D
:1034E00085B5826085BD85B5816085BD80916E00A2
:1034F000816080936E0010928100809181008260D3
:10350000809381008091810081608093810080910F
:1035100080008160809380008091B10084608093FE
:10352000B1008091B00081608093B00080917A00FA
:10353000846080937A0080917A00826080937A0020
:1035400080917A00816080937A0080917A0080680F
:1035500080937A001092C100E0915C02F0915D02CC
:1035600082E08083E0915802F09159021082E0914C
:103570005A02F0915B028FEC808310926402E0911A
:103580006002F091610286E08083E0915E02F0913A
:103590005F02808180618083E0915E02F0915F0232
:1035A000808188608083E0915E02F0915F0280817B
:1035B00080688083E0915E02F0915F0280818F7D60
:1035C000808360E08EE00E94530681E10E948406C1
:1035D000BC01990F880B990B611571058105910547
:1035E00011F00E944B218091410390914203892B5D
:1035F00021F182E293E00E94761720912803309116
:1036000029038091260390912703213231050CF084
:103610004DC0B9016052710977FF02C06F5F7F4FE3
:10362000759567958357910997FD019600E210E023
:1036300023E730E04EE855E04CC02091280330915C
:103640002903C901079697FD0796B3E095958795DD
:10365000BA95E1F72091260330912703AC01429FF0
:10366000C001439F900D529F900D11240E9467242A
:103670009093420380934103892B09F0BACF0EE265
:103680001AE0F8016491662341F08CE492E00E9414
:1036900090070F5F1F4F892BA1F742E050E06AE5CA
:1036A00071E08CE492E00E94F006FFCFB901605413
:1036B000710977FF02C06F5F7F4F759567958255DF
:1036C000910997FD019600E410E022E530E04EE616
:1036D00057E0959587950E94450F82E080934403BB
:1036E00080913F0390914003892B09F49AC08CE3A9
:1036F00080934303109242021092410210924002C2
:1037000010923F020E947B108EEE96E090933E0254
:1037100080933D028FEE96E090933C0280933B02B3
:1037200080914A0387FD1EC061E00E94530661E05C
:1037300080914A030E94070661E070E080E090E01B
:103740000E94BB0660E080914A030E9407066AE07F
:1037500070E080E090E00E94BB0661E080914A0347
:103760000E94070680913F0390914003892B09F442
:1037700017C120915703309158034091590350913C
:103780005A0360E074E284EF90E00E941623205117
:103790003109410951095695479537952795209349
:1037A000B80044E06AE875E082E293E00E942612E5
:1037B00060912803615082E293E00E94CB1244E0C2
:1037C00066E875E082E293E00E942612809144034D
:1037D00064E1813009F460E182E293E00E94CB125F
:1037E00044E062E875E082E293E00E9426128FE8EE
:1037F00080935F0380912603909127038038910581
:1038000009F058C2809128039091290380349105D2
:1038100009F060C280914403813009F4D8C08FEC74
:10382000D7C061E0809148030E94530661E0809117
:1038300049030E94530680914803082E000C990BFF
:10384000FC01E45AF54FE491F0E0EE0FFF1FEE5A51
:10385000F54F259134913093500320934F03FC0191
:10386000E059F54FE491E093550380914903082E08
:10387000000C990BFC01E45AF54FE491F0E0EE0FD7
:10388000FF1FEE5AF54FA591B491B0935203A09348
:103890005103FC01E059F54FE491E09356038C91FC
:1038A000E82BEC9380913D0390913E03892B09F422
:1038B00034C01FB7F89480913A02811127C0E6E620
:1038C000FAE08491EAE7FAE09491E82FF0E0EE0F55
:1038D000FF1FE85BF54FA591B491EC91E92321F42A
:1038E00061E08AE00E94070661E08AE00E945306D8
:1038F0008CB580618CBD8CB580648CBD61E08DE041
:103900000E94530661E08BE00E94530680913A02C8
:103910008F5F80933A021FBF03CF61E0809146031F
:103920000E94530661E0809147030E9453068091F4
:103930004603082E000C990BFC01E45AF54FE49164
:10394000F0E0EE0FFF1FEE5AF54F259134913093C2
:103950004C0320934B03FC01E059F54FE491E093B5
:10396000530380914703082E000C990BFC01E45A85
:10397000F54FE491F0E0EE0FFF1FEE5AF54FA591E1
:10398000B491B0934E03A0934D03FC01E059F54F61
:10399000E491E09354038C91E095E823EC93C0CE3E
:1039A00080913D0390913E03892B31F0809160031B
:1039B000909161030E945B0AE0915103F0915203E0
:1039C000908180915603809589238083EACE8FE988
:1039D00080935F0312E16AED82E293E00E94CB12D2
:1039E000612F82E293E00E94CB1261E882E293E0D1
:1039F0000E94CB1260915F0382E293E00E94CB129F
:103A000069ED82E293E00E94CB128091440361EF62
:103A1000813009F462E282E293E00E94CB1246E038
:103A20006CE775E082E293E00E94261280913F03EA
:103A300090914003892B09F461C120915B0330917F
:103A40005C0340915D0350915E0360E074E284EF9B
:103A500090E00E94162320513109410951095695E1
:103A60004795379527952093B8000E945A16809164
:103A70000203909103030E947617E0910203F091F4
:103A8000030381E0848B858B81E090E0938B828BB4
:103A9000918B808B15861486178616866DE571E0EE
:103AA000CF010E944B1680910203909103030E9464
:103AB000831364EF71E080E090E00E94BB0603E0B6
:103AC00010E067E671E080910203909103030E9489
:103AD0004B1680910203909103030E94831364EFBD
:103AE00071E080E090E00E94BB060150110949F7A7
:103AF0008091020390910303DC011D961C921E929B
:103B00001C971F961C921E921E970E9476178091FA
:103B10000203909103030E948313812C912C90E85F
:103B2000A92E91E4B92E8EE00E9484067C0182E2E7
:103B300093E00E947617B701FF0C880B990B0E9447
:103B4000902120E030E040EA51E40E94472320E049
:103B500030E842E254E40E94B42320E030E040EE3A
:103B600051E40E94EF2120E030E0A9010E944823A7
:103B70000E94262470931303609312038DE093E058
:103B80000E949C1484E093E00E949C14C090F20276
:103B9000D090F302E090F402F090F50220E030E0E3
:103BA00040E051E4C701B6010E94892187FFB0C0FF
:103BB0004090F6025090F7026090F8027090F9027F
:103BC000E091EB02F091EC0225803680B101032CEC
:103BD000000C880B990B0E9490219B01AC01C30142
:103BE000B2010E94892187FD12C0B1016D5F7F4F34
:103BF000072E000C880B990B0E9490219B01AC01B1
:103C0000C301B2010E945C2418160CF081C080E050
:103C100090E0A0E8B2E48093F2029093F302A093C4
:103C2000F402B093F5028092F6029092F702A0920D
:103C3000F802B092F9020E945A16E091ED02F0915A
:103C4000EE0287819085019690878783E090EB0252
:103C5000F090EC02D70117968D919C91409709F056
:103C6000ACC08091E9029091EA020E94761700911F
:103C7000EF021091F0021A8219821C821B821E82AE
:103C80001D824CE050E069E671E0CE0101960E9491
:103C9000FE16BE016F5F7F4FC8010E94C114CE01A6
:103CA00001960E946E178091E9029091EA020E94AB
:103CB0008313FFCF8036910589F48091280390917A
:103CC0002903409739F480914403813029F08FEA29
:103CD00080935F0312E07FCE80E1FACF80349105BC
:103CE000C9F78091280390912903809799F78091D3
:103CF0004403813009F093CD80E16ACEE091510315
:103D0000F0915203808190915603892B8083ADCE30
:103D100020E030E040EF52E4C701B6010E945C248D
:103D200018160CF093CF4090F6025090F702609076
:103D3000F8027090F902E091ED02F091EE02E58058
:103D4000F680B7010F2C000C880B990B0E94902174
:103D50009B01AC01C301B2010E94892187FD12C001
:103D6000B7016D5F7F4F072E000C880B990B0E94E7
:103D700090219B01AC01C301B2010E945C24181682
:103D80000CF064CF80E090E0A0E8B2E48093F2020F
:103D90009093F302A093F402B093F5028092F6029E
:103DA0009092F702A092F802B092F9020E945A167D
:103DB000E091EB02F091EC0244CFE091ED02F09142
:103DC000EE0287819085409749F58091E9029091B4
:103DD000EA020E9476170091EF021091F0021A8217
:103DE00019821C821B821E821D824CE050E066E715
:103DF00071E0CE0101960E94FE16BE016F5F7F4FFB
:103E0000C8010E94C114CE0101960E946E178091D4
:103E1000E9029091EA020E948313FFCF4090F202E0
:103E20005090F3026090F4027090F50220E030E0D0
:103E3000A901C301B2010E94892118160CF441C1E5
:103E40001092F2021092F3021092F4021092F50214
:103E50008091FA029091FB02A091FC02B091FD02C8
:103E6000B0588093FA029093FB02A093FC02B093A7
:103E7000FD024090F6025090F7026090F8027090B8
:103E8000F90220E030E0A901C301B2010E948921BA
:103E900018160CF42DC11092F6021092F70210922F
:103EA000F8021092F9028091FE029091FF02A09117
:103EB0000003B0910103B0588093FE029093FF027B
:103EC000A0930003B0930103F7016581768183819C
:103ED00094810E947805E091ED02F091EE026581F7
:103EE0007681838194810E9478052091FA02309135
:103EF000FB024091FC025091FD026091F202709130
:103F0000F3028091F4029091F5020E9448236B0124
:103F10007C01C092F202D092F302E092F402F0929D
:103F2000F5022091FE023091FF0240910003509172
:103F300001036091F6027091F7028091F80290916E
:103F4000F9020E9448236093F6027093F70280936F
:103F5000F8029093F9022090E9023090EA020E9460
:103F600026242B01C701B6010E942624D101ED9120
:103F7000FC9106A0F7A1E02DEE24E394F12C02E0E1
:103F800010E022E030E0A201C10109950091140384
:103F90001091150360910B0370910C03CE010D96E7
:103FA0000E941F17B801CE0101960E941F171886A4
:103FB0001F821A8619861C861B86BE016F5F7F4F83
:103FC000CE0107960E945717EB84FC84B3E0EB0EFA
:103FD000F11CB701CE0107960E94C41681119FC043
:103FE000CE0107960E94EC16E988FA88CD84DE841B
:103FF000C114D10409F4A0C0E114F104B9F08B8517
:104000009C85E80EF91EB701CE0107960E94C416E2
:10401000882309F491C02F8138858B859C85B60152
:10402000820F931F0E945E26FC86EB861C8A1B8AE9
:104030001E8A1D8A188E1F8ABE01695F7F4FCE01BE
:1040400043960E945717CE0107960E946E17CE0125
:1040500001960E946E17CE010D960E946E171A826D
:1040600019821C821B821E821D82BE016D5E7F4FE3
:10407000CE0101960E945717BE016F5F7F4F82E00D
:1040800093E00E94C114CE0101960E946E17CE01EA
:1040900043960E946E1782E293E00E94831360E0D1
:1040A00070E0CB010E94BB06E0E0F0E0EF2B09F4EA
:1040B0003ACD0E945A07882309F435CD0E940000AA
:1040C00032CD20E030E04CEF52E4C301B2010E9457
:1040D0005C2487FDCECE80E090E0ACEFB2E480932C
:1040E000F2029093F302A093F402B093F502B0CEE3
:1040F00020E030E040EF51E4C301B2010E945C24B3
:1041000087FDE2CE80E090E0A0EFB1E48093F6027C
:104110009093F702A093F802B093F902C4CE2F81D6
:1041200038858B859C8563E871E0820F931F0E9420
:104130005E26FC86EB8658CFCE0107960E94EC16D1
:1041400075CF82E391E090932303809322038091C3
:10415000410390914203009711F00C9403250895B8
:104160008F929F92AF92BF92CF92DF92EF92FF9287
:10417000CF93DF93EC01688179818A819B816115FE
:1041800071058105910521F464E279ED8BE597E0F5
:104190002DE133EF41E050E00E94AD2249015A0188
:1041A0009B01AC01A7EAB1E40E94CC226B017C0127
:1041B000ACEEB4EFA50194010E94DA22C60ED71E20
:1041C000E81EF91EF7FE06C081E0C81AD108E10812
:1041D00080E8F80AC882D982EA82FB82C701B60168
:1041E0009F77DF91CF91FF90EF90DF90CF90BF90BE
:1041F000AF909F908F9008958F929F92AF92BF92B1
:10420000CF92DF92EF92FF926091000170910101D5
:10421000809102019091030161157105810591055D
:1042200021F464E279ED8BE597E02DE133EF41E095
:1042300050E00E94AD2249015A019B01AC01A7EA5E
:10424000B1E40E94CC226B017C01ACEEB4EFA5017D
:1042500094010E94DA22C60ED71EE81EF91EF7FE50
:1042600006C081E0C81AD108E10880E8F80AC092C7
:104270000001D0920101E0920201F0920301C70116
:10428000B6019F77FF90EF90DF90CF90BF90AF90F7
:104290009F908F9008956093000170930101809327
:1042A0000201909303010895BB274A3031F499230A
:1042B00022F4BDE2909581959F4F0C946021BB271D
:1042C000FB015527AA27880F991FAA1FA41710F0D2
:1042D000A41B83955051B9F7A05DAA3308F0A95DDE
:1042E000A193009779F7B111B1931192CB010C947E
:1042F0007921DC01FC01672F71917723E1F7329777
:1043000004C07C916D9370836291AE17BF07C8F3B0
:1043100008950E94CB2108F481E00895E89409C033
:1043200097FB3EF490958095709561957F4F8F4FE8
:104330009F4F9923A9F0F92F96E9BB279395F695FE
:10434000879577956795B795F111F8CFFAF4BB0F7C
:1043500011F460FF1BC06F5F7F4F8F4F9F4F16C0E0
:10436000882311F096E911C0772321F09EE8872F6A
:10437000762F05C0662371F096E8862F70E060E026
:104380002AF09A95660F771F881FDAF7880F96959F
:10439000879597F90895990F0008550FAA0BE0E843
:1043A000FEEF16161706E807F907C0F012161306F7
:1043B000E407F50798F0621B730B840B950B39F437
:1043C0000A2661F0232B242B252B21F408950A269D
:1043D00009F4A140A6958FEF811D811D08950E94CB
:1043E00002220C9473220E94652238F00E946C22F3
:1043F00020F0952311F00C945C220C94622211247D
:104400000C94A7220E94842270F3959FC1F3950F0C
:1044100050E0551F629FF001729FBB27F00DB11D48
:10442000639FAA27F00DB11DAA1F649F6627B00DD8
:10443000A11D661F829F2227B00DA11D621F739FC1
:10444000B00DA11D621F839FA00D611D221F749FCF
:104450003327A00D611D231F849F600D211D822F16
:10446000762F6A2F11249F5750409AF0F1F088233D
:104470004AF0EE0FFF1FBB1F661F771F881F91506A
:104480005040A9F79E3F510580F00C945C220C949B
:10449000A7225F3FE4F3983ED4F38695779567951E
:1044A000B795F795E7959F5FC1F7FE2B880F911D94
:1044B0009695879597F9089597F99F6780E870E03A
:1044C00060E008959FEF80EC089500240A9416168A
:1044D000170618060906089500240A9412161306F2
:1044E000140605060895092E0394000C11F4882380
:1044F00052F0BB0F40F4BF2B11F460FF04C06F5F9C
:104500007F4F8F4F9F4F089557FD9058440F551F71
:1045100059F05F3F71F04795880F97FB991F61F045
:104520009F3F79F087950895121613061406551FBC
:10453000F2CF4695F1DF08C0161617061806991F28
:10454000F1CF86957105610508940895E894BB271D
:1045500066277727CB0197F90895052E97FB1EF460
:1045600000940E94C42257FD07D00E94162307FC26
:1045700003D04EF40C94C42250954095309521956B
:104580003F4F4F4F5F4F089590958095709561957F
:104590007F4F8F4F9F4F08950E943823A59F900D06
:1045A000B49F900DA49F800D911D11240895B7FF15
:1045B0000C94CC220E94CC22821B930B08952F9244
:1045C0003F924F925F926F927F928F929F92AF92A3
:1045D000BF92CF92DF92EF92FF920F931F93CF93F0
:1045E000DF93CDB7DEB7CA1BDB0B0FB6F894DEBF87
:1045F0000FBECDBF09942A88398848885F846E84AD
:104600007D848C849B84AA84B984C884DF80EE80F6
:10461000FD800C811B81AA81B981CE0FD11D0FB6FF
:10462000F894DEBF0FBECDBFED010895A1E21A2EB2
:10463000AA1BBB1BFD010DC0AA1FBB1FEE1FFF1F46
:10464000A217B307E407F50720F0A21BB30BE40B96
:10465000F50B661F771F881F991F1A9469F76095DD
:104660007095809590959B01AC01BD01CF01089597
:10467000A29FB001B39FC001A39F700D811D1124A3
:10468000911DB29F700D811D1124911D08955058E8
:10469000BB27AA270E945F230C9473220E946522E5
:1046A00038F00E946C2220F039F49F3F19F426F470
:1046B0000C9462220EF4E095E7FB0C945C22E92F47
:1046C0000E94842258F3BA1762077307840795077C
:1046D00020F079F4A6F50C94A6220EF4E0950B2EAA
:1046E000BA2FA02D0B01B90190010C01CA01A00144
:1046F0001124FF27591B99F0593F50F4503E68F19F
:104700001A16F040A22F232F342F4427585FF3CFDF
:10471000469537952795A795F0405395C9F77EF4B0
:104720001F16BA0B620B730B840BBAF09150A1F0F9
:10473000FF0FBB1F661F771F881FC2F70EC0BA0F7F
:10474000621F731F841F48F4879577956795B79507
:10475000F7959E3F08F0B0CF9395880F08F0992702
:10476000EE0F9795879508950E94C8230C947322A5
:104770000E946C2258F00E94652240F029F45F3FAD
:1047800029F00C945C2251110C94A7220C94622203
:104790000E94842268F39923B1F3552391F3951B6A
:1047A000550BBB27AA2762177307840738F09F5F52
:1047B0005F4F220F331F441FAA1FA9F335D00E2EBF
:1047C0003AF0E0E832D091505040E695001CCAF72C
:1047D0002BD0FE2F29D0660F771F881FBB1F2617EF
:1047E00037074807AB07B0E809F0BB0B802DBF01C6
:1047F000FF2793585F4F3AF09E3F510578F00C9495
:104800005C220C94A7225F3FE4F3983ED4F3869594
:1048100077956795B795F7959F5FC9F7880F911DB5
:104820009695879597F90895E1E0660F771F881FA1
:10483000BB1F621773078407BA0720F0621B730B54
:10484000840BBA0BEE1F88F7E09508950E942D2483
:104850006894B1110C94A72208950E948C2288F0CC
:104860009F5798F0B92F9927B751B0F0E1F0660F34
:10487000771F881F991F1AF0BA95C9F714C0B13075
:1048800091F00E94A622B1E008950C94A622672F11
:10489000782F8827B85F39F0B93FCCF386957795A4
:1048A0006795B395D9F73EF490958095709561958D
:1048B0007F4F8F4F9F4F08950E94CB2108F48FEFB9
:1048C0000895EE0FFF1F0590F491E02D09940F93CA
:1048D0001F93CF93DF938230910510F482E090E034
:1048E000E0916403F091650330E020E0B0E0A0E0E7
:1048F000309799F42115310509F44AC0281B390B6A
:1049000024303105D8F58A819B816115710589F1C3
:10491000FB0193838283FE0111C04081518102819A
:10492000138148175907E0F04817590799F4109771
:1049300061F012960C93129713961C933296CF0146
:10494000DF91CF911F910F9108950093640310930D
:104950006503F4CF2115310551F04217530738F0A4
:10496000A901DB019A01BD01DF01F801C1CFEF010F
:10497000F9CF9093650380936403CDCFFE01E20FDE
:10498000F31F819391932250310939832883D7CF24
:104990002091620330916303232B41F4209106019F
:1049A0003091070130936303209362032091040147
:1049B000309105012115310541F42DB73EB74091E5
:1049C000080150910901241B350BE0916203F0911D
:1049D0006303E217F307A0F42E1B3F0B28173907D8
:1049E00078F0AC014E5F5F4F2417350748F04E0F4B
:1049F0005F1F5093630340936203819391939FCF12
:104A0000F0E0E0E09CCFCF93DF930097E9F0FC016A
:104A1000329713821282A0916403B0916503ED0175
:104A200030E020E01097A1F420813181820F931FA4
:104A300020916203309163032817390709F061C0A0
:104A4000F0936303E0936203DF91CF910895EA014D
:104A5000CE17DF07E8F54A815B819E0141155105BC
:104A6000B1F7E901FB83EA8349915991C40FD51F3E
:104A7000EC17FD0761F4808191810296840F951FE8
:104A8000E90199838883828193819B838A83F0E003
:104A9000E0E012968D919C9113970097B9F52D91B6
:104AA0003C911197CD010296820F931F20916203D2
:104AB000309163032817390739F6309751F5109272
:104AC000650310926403B0936303A0936203BCCFA9
:104AD000D383C28340815181840F951FC817D907A2
:104AE00061F44E5F5F4F88819981480F591F518350
:104AF00040838A819B81938382832115310509F04C
:104B0000B0CFF0936503E09364039ECFFD01DC0119
:104B1000C0CF13821282D7CFB0E0A0E0E2E9F5E285
:104B20000C94E1228C01009751F4CB010E94672480
:104B30008C01C801CDB7DEB7E0E10C94FD22FC0189
:104B4000E60FF71F9C0122503109E217F30708F422
:104B50009DC0D901CD91DC911197C617D70798F068
:104B6000C530D10530F3CE0104978617970708F3B7
:104B7000C61BD70B2297C193D1936D937C93CF0122
:104B80000E940325D6CF5B01AC1ABD0A4C018C0EE6
:104B90009D1EA0916403B0916503512C412CF12C12
:104BA000E12C109731F58091620390916303881591
:104BB000990509F05CC04616570608F058C0809168
:104BC000040190910501009741F48DB79EB7409183
:104BD000080150910901841B950BE817F90708F0AB
:104BE00055C0F0936303E0936203F901718360831E
:104BF000A0CF8D919C91119712966C90129713965D
:104C00007C901397A815B90559F56C0142E0C40EC4
:104C1000D11CCA14DB0420F1AC014A195B09DA018A
:104C20001296159780F06282738251834083D90176
:104C30006D937C93E114F10471F0D7011396FC930A
:104C4000EE93129776CF22968C0F9D1FF9019183D8
:104C50008083F301EFCFF0936503E093640369CFA2
:104C60004816590608F42C017D01D3019ACFCB01D7
:104C70000E9467247C01009749F0AE01B8010E94B0
:104C80004E26C8010E940325870153CF10E000E0A3
:104C900050CF81E090E0F8940C946526FB01DC0194
:104CA00002C001900D9241505040D8F70895DC01A8
:104CB00001C06D9341505040E0F70895FB01DC01C5
:104CC00001900D920020E1F7089515E0CDE4D5E0C4
:104CD00004C0FE010E9461242196CE34D107C9F799
:044CE000F894FFCF76
:104CE400010000000000660380000000000090073F
:104CF400F0061D07DD074E072C07400700000000E3
:104D04001011E31099140606DC10C910BA10000043
:104D14000000990CF00699145310A40906063E0FDE
:104D2400160F320F260FA60F06065F0A2D1314095D
:104D34005D095F0E420ECA0D6B0D0D0A00436172D0
:104D44006963616E646F002E0050312068612076C3
:104D5400696E746F210050322068612076696E7428
:084D64006F2100207C200000FB
:00000001FF
